:04006F007F147E007C
:10007300EF4E6010007D027CC7DCFEDDFCEF1F70DD
:04008300EF1E80EC00
:010087002256
:10000300E4FBFA20B1307A01BB01040508E4FB12DA
:10001300006F30B1FD12006FC3E50864809488401F
:1000230003E4F508AF087401A807088002C333D8B6
:10003300FCF4F5A0050820B0CA7B0112006F30B0B4
:10004300FD12006FBA0108E50860041508E4FAE53B
:1000530008700575080780021508AF087401A80722
:0C006300088002C333D8FCF4F5A080979D
:0300000002008873
:0C008800787FE4F6D8FD758108020003C3
:00000001FF
