:0C009C000A083F065B4F666D7D077F6F12
:0D008F00EF14F4F5A074082DF8E6F58022BA
:0B00A9007D057C007F0612008F80FEAA
:03000000020003F8
:0C000300787FE4F6D8FD75811102004AF8
:10000F000200A9E493A3F8E493A34003F68001F25E
:10001F0008DFF48029E493A3F85407240CC8C333F2
:10002F00C4540F4420C8834004F456800146F6DFC1
:10003F00E4800B010204081020408090009CE47EB5
:10004F00019360BCA3FF543F30E509541FFEE493B6
:10005F00A360010ECF54C025E060A840B8E493A37D
:10006F00FAE493A3F8E493A3C8C582C8CAC583CAA8
:10007F00F0A3C8C582C8CAC583CADFE9DEE780BE60
:0100A8000057
:00000001FF
