:03042100012500B2
:1003A9001203DA1200038F25E52560F7FB7A007541
:0B03B9000C027D027F0112038C80E823
:0F03EE0000EF600B7E027DC7DDFEDEFC1F80F29C
:0103FD0022DD
:0603FE00C2A58F80D2A70A
:080404007F027EC7DEFEDFFC73
:01040C0022CD
:0A040D00C2A61203FEC2A7020404F7
:10036E00CFCDCFCECCCE12018C7C007D0A12018C6B
:04037E00ED2430FF3B
:0A038200D2A61203FEC2A702040473
:1003C400AE07BE0104ED148006BE0209ED243F44CD
:0603D40080FF12040D225F
:1003DA007F3812040D7F0C12040D7F0612040D7F64
:0403EA000102040DFB
:0A041700AC031203C4AF0402038219
:06034B008B228A238924A5
:100351001203C4E4FDAB22AA23A9248D8275830074
:0C03610012014DFF60061203820D80E9BE
:01036D00226D
:0C0318007F0AEA24FFFDE434FFFC7E00B5
:080324008E0D8F0E8C0F8D1061
:10032C007F017E00E4FBEBC39510E50F6480F8744D
:0E033C008098500AAC0DAD0E12017A0B80E8CD
:01034A002290
:04038C008A0A8B0B43
:100390001203C4AA0CEAD39400400D120318AC0A4D
:0803A000AD0B12036E1A80ED93
:0103A8002232
:10026D001203C4C3EA64809480400B7F2B12038277
:10027D008A168B17800E7F2D120382C3E49BF51710
:10028D00E49AF516AA15EAD39400400D120318ACA2
:09029D0016AD1712036E1A80ED74
:0102A6002235
:0402A7008A1A8B1B09
:1002AB001203C4AA1CEAD3940040297F1012031A2C
:1002BB00AC1AAD1BCFCDCFCECCCE12018CEF540FE1
:1002CB00FEC3940AEE5004243080022437FF12033D
:0402DB00821A80D132
:0102DF0022FC
:0402E0008A1F8B20C6
:1002E4001203C4AA21EAD394004028EA24FFFDE4BF
:1002F40034FFFC7F027E00120324AC1FAD20CFCD5F
:10030400CFCECCCE12018CEF54012430FF120382E5
:030314001A80D27A
:0103170022C3
:10000300E4F5087590FFC2932097107F141203EE56
:100013003097FD7F141203EE7508012096107F14AC
:100023001203EE3096FD7F141203EE75080520953A
:10003300107F141203EE3095FD7F141203EE750842
:10004300092094107F141203EE3094FD7F141203E1
:10005300EE75080D7590FFC2922097107F1412035E
:10006300EE3097FD7F141203EE7508022096107F81
:10007300141203EE3096FD7F141203EE750806206A
:1000830095107F141203EE3095FD7F141203EE7565
:10009300080A2094107F141203EE3094FD7F14128B
:1000A30003EE75080E7590FFC2912097107F14120E
:1000B30003EE3097FD7F141203EE750803209610AC
:1000C3007F141203EE3096FD7F141203EE750807BA
:1000D3002095107F141203EE3095FD7F141203EE6A
:1000E30075080B2094107F141203EE3094FD7F14D7
:1000F3001203EE75080F7590FFC2902097107F14BE
:100103001203EE3097FD7F141203EE750804209658
:10011300107F141203EE3096FD7F141203EE750860
:10012300082095107F141203EE3095FD7F141203FF
:10013300EE75080C2094107F141203EE3094FD7FAB
:09014300141203EE750810AF0858
:01014C002290
:030000000201E119
:0C01E100787FE4F6D8FD75812502022825
:10014D00BB010CE58229F582E5833AF583E0225067
:10015D0006E92582F8E622BBFE06E92582F8E222B1
:0D016D00E58229F582E5833AF583E49322CB
:10017A00EF8DF0A4A8F0CF8CF0A428CE8DF0A42E99
:02018A00FE2253
:10018C00BC000BBE0029EF8DF084FFADF022E4CC57
:10019C00F875F008EF2FFFEE33FEEC33FCEE9DEC20
:1001AC00984005FCEE9DFE0FD5F0E9E4CEFD22ED66
:1001BC00F8F5F0EE8420D21CFEADF075F008EF2FB0
:1001CC00FFED33FD4007985006D5F0F222C398FDA1
:0501DC000FD5F0EA223E
:1001ED000203A9E493A3F8E493A34003F68001F27C
:1001FD0008DFF48029E493A3F85407240CC8C33313
:10020D00C4540F4420C8834004F456800146F6DFE1
:10021D00E4800B0102040810204080900421E47E4C
:10022D00019360BCA3FF543F30E509541FFEE493D6
:10023D00A360010ECF54C025E060A840B8E493A39D
:10024D00FAE493A3F8E493A3C8C582C8CAC583CAC8
:10025D00F0A3C8C582C8CAC583CADFE9DEE780BE80
:0104240000D7
:00000001FF
